{
  "contractName": "Ride",
  "abi": [
    {
      "inputs": [
        {
          "internalType": "address",
          "name": "_token",
          "type": "address"
        }
      ],
      "stateMutability": "nonpayable",
      "type": "constructor"
    },
    {
      "anonymous": false,
      "inputs": [
        {
          "indexed": true,
          "internalType": "address",
          "name": "previousOwner",
          "type": "address"
        },
        {
          "indexed": true,
          "internalType": "address",
          "name": "newOwner",
          "type": "address"
        }
      ],
      "name": "OwnershipTransferred",
      "type": "event"
    },
    {
      "inputs": [
        {
          "internalType": "string",
          "name": "_name",
          "type": "string"
        },
        {
          "internalType": "string",
          "name": "_email",
          "type": "string"
        },
        {
          "internalType": "string",
          "name": "_dob",
          "type": "string"
        },
        {
          "internalType": "string",
          "name": "_govtId",
          "type": "string"
        },
        {
          "internalType": "string",
          "name": "_picture",
          "type": "string"
        }
      ],
      "name": "createCustomer",
      "outputs": [
        {
          "internalType": "address",
          "name": "",
          "type": "address"
        }
      ],
      "stateMutability": "nonpayable",
      "type": "function"
    },
    {
      "inputs": [
        {
          "internalType": "string",
          "name": "_name",
          "type": "string"
        },
        {
          "internalType": "string",
          "name": "_dob",
          "type": "string"
        },
        {
          "internalType": "string",
          "name": "_curAddress",
          "type": "string"
        },
        {
          "internalType": "string",
          "name": "_govtId",
          "type": "string"
        },
        {
          "internalType": "string",
          "name": "_picture",
          "type": "string"
        },
        {
          "internalType": "string",
          "name": "_dl",
          "type": "string"
        }
      ],
      "name": "createDriver",
      "outputs": [
        {
          "internalType": "address",
          "name": "",
          "type": "address"
        }
      ],
      "stateMutability": "nonpayable",
      "type": "function"
    },
    {
      "inputs": [
        {
          "internalType": "address",
          "name": "",
          "type": "address"
        }
      ],
      "name": "customers",
      "outputs": [
        {
          "internalType": "uint256",
          "name": "id",
          "type": "uint256"
        },
        {
          "internalType": "string",
          "name": "name",
          "type": "string"
        },
        {
          "internalType": "string",
          "name": "email",
          "type": "string"
        },
        {
          "internalType": "string",
          "name": "dob",
          "type": "string"
        },
        {
          "internalType": "string",
          "name": "govtId",
          "type": "string"
        },
        {
          "internalType": "string",
          "name": "picture",
          "type": "string"
        },
        {
          "internalType": "address",
          "name": "wallet",
          "type": "address"
        }
      ],
      "stateMutability": "view",
      "type": "function",
      "constant": true
    },
    {
      "inputs": [
        {
          "internalType": "address",
          "name": "",
          "type": "address"
        }
      ],
      "name": "drivers",
      "outputs": [
        {
          "internalType": "uint256",
          "name": "id",
          "type": "uint256"
        },
        {
          "internalType": "string",
          "name": "name",
          "type": "string"
        },
        {
          "internalType": "string",
          "name": "dob",
          "type": "string"
        },
        {
          "internalType": "string",
          "name": "curAddress",
          "type": "string"
        },
        {
          "internalType": "string",
          "name": "govtID",
          "type": "string"
        },
        {
          "internalType": "string",
          "name": "picture",
          "type": "string"
        },
        {
          "internalType": "string",
          "name": "DL",
          "type": "string"
        },
        {
          "internalType": "address",
          "name": "wallet",
          "type": "address"
        }
      ],
      "stateMutability": "view",
      "type": "function",
      "constant": true
    },
    {
      "inputs": [
        {
          "internalType": "address",
          "name": "_walletAddr",
          "type": "address"
        }
      ],
      "name": "getCustomer",
      "outputs": [
        {
          "components": [
            {
              "internalType": "uint256",
              "name": "id",
              "type": "uint256"
            },
            {
              "internalType": "string",
              "name": "name",
              "type": "string"
            },
            {
              "internalType": "string",
              "name": "email",
              "type": "string"
            },
            {
              "internalType": "string",
              "name": "dob",
              "type": "string"
            },
            {
              "internalType": "string",
              "name": "govtId",
              "type": "string"
            },
            {
              "internalType": "string",
              "name": "picture",
              "type": "string"
            },
            {
              "internalType": "address",
              "name": "wallet",
              "type": "address"
            }
          ],
          "internalType": "struct Customer.CUSTOMER",
          "name": "",
          "type": "tuple"
        }
      ],
      "stateMutability": "view",
      "type": "function",
      "constant": true
    },
    {
      "inputs": [
        {
          "internalType": "address",
          "name": "_walletAddr",
          "type": "address"
        }
      ],
      "name": "getDriver",
      "outputs": [
        {
          "components": [
            {
              "internalType": "uint256",
              "name": "id",
              "type": "uint256"
            },
            {
              "internalType": "string",
              "name": "name",
              "type": "string"
            },
            {
              "internalType": "string",
              "name": "dob",
              "type": "string"
            },
            {
              "internalType": "string",
              "name": "curAddress",
              "type": "string"
            },
            {
              "internalType": "string",
              "name": "govtID",
              "type": "string"
            },
            {
              "internalType": "string",
              "name": "picture",
              "type": "string"
            },
            {
              "internalType": "string",
              "name": "DL",
              "type": "string"
            },
            {
              "internalType": "address",
              "name": "wallet",
              "type": "address"
            }
          ],
          "internalType": "struct Driver.DRIVER",
          "name": "",
          "type": "tuple"
        }
      ],
      "stateMutability": "view",
      "type": "function",
      "constant": true
    },
    {
      "inputs": [],
      "name": "owner",
      "outputs": [
        {
          "internalType": "address",
          "name": "",
          "type": "address"
        }
      ],
      "stateMutability": "view",
      "type": "function",
      "constant": true
    },
    {
      "inputs": [],
      "name": "renounceOwnership",
      "outputs": [],
      "stateMutability": "nonpayable",
      "type": "function"
    },
    {
      "inputs": [
        {
          "internalType": "address",
          "name": "newOwner",
          "type": "address"
        }
      ],
      "name": "transferOwnership",
      "outputs": [],
      "stateMutability": "nonpayable",
      "type": "function"
    },
    {
      "inputs": [
        {
          "internalType": "string",
          "name": "name",
          "type": "string"
        },
        {
          "internalType": "string",
          "name": "email",
          "type": "string"
        },
        {
          "internalType": "string",
          "name": "password",
          "type": "string"
        },
        {
          "internalType": "string",
          "name": "addr",
          "type": "string"
        },
        {
          "internalType": "string",
          "name": "aadhar",
          "type": "string"
        },
        {
          "internalType": "uint256",
          "name": "isDriver",
          "type": "uint256"
        },
        {
          "internalType": "string",
          "name": "vehicleNo",
          "type": "string"
        },
        {
          "internalType": "string",
          "name": "vehicle",
          "type": "string"
        }
      ],
      "name": "registerCitizen",
      "outputs": [],
      "stateMutability": "nonpayable",
      "type": "function"
    },
    {
      "inputs": [
        {
          "internalType": "string",
          "name": "email",
          "type": "string"
        },
        {
          "internalType": "string",
          "name": "password",
          "type": "string"
        }
      ],
      "name": "LoginCitizen",
      "outputs": [
        {
          "internalType": "uint256",
          "name": "",
          "type": "uint256"
        }
      ],
      "stateMutability": "view",
      "type": "function",
      "constant": true
    },
    {
      "inputs": [
        {
          "internalType": "string",
          "name": "_rideDetails",
          "type": "string"
        }
      ],
      "name": "postRide",
      "outputs": [
        {
          "internalType": "uint256",
          "name": "",
          "type": "uint256"
        }
      ],
      "stateMutability": "nonpayable",
      "type": "function"
    },
    {
      "inputs": [
        {
          "internalType": "uint256",
          "name": "_rideId",
          "type": "uint256"
        }
      ],
      "name": "bookRide",
      "outputs": [],
      "stateMutability": "nonpayable",
      "type": "function"
    },
    {
      "inputs": [],
      "name": "getAllRides",
      "outputs": [
        {
          "components": [
            {
              "internalType": "uint256",
              "name": "id",
              "type": "uint256"
            },
            {
              "internalType": "address",
              "name": "driver",
              "type": "address"
            },
            {
              "internalType": "address",
              "name": "customer",
              "type": "address"
            },
            {
              "internalType": "enum Ride.RIDE_STATUS",
              "name": "status",
              "type": "uint8"
            },
            {
              "internalType": "string",
              "name": "ride",
              "type": "string"
            },
            {
              "internalType": "uint256",
              "name": "timestamp",
              "type": "uint256"
            }
          ],
          "internalType": "struct Ride.RIDE[]",
          "name": "",
          "type": "tuple[]"
        }
      ],
      "stateMutability": "view",
      "type": "function",
      "constant": true
    },
    {
      "inputs": [
        {
          "internalType": "uint256",
          "name": "_rideId",
          "type": "uint256"
        }
      ],
      "name": "fetchRide",
      "outputs": [
        {
          "components": [
            {
              "internalType": "uint256",
              "name": "id",
              "type": "uint256"
            },
            {
              "internalType": "address",
              "name": "driver",
              "type": "address"
            },
            {
              "internalType": "address",
              "name": "customer",
              "type": "address"
            },
            {
              "internalType": "enum Ride.RIDE_STATUS",
              "name": "status",
              "type": "uint8"
            },
            {
              "internalType": "string",
              "name": "ride",
              "type": "string"
            },
            {
              "internalType": "uint256",
              "name": "timestamp",
              "type": "uint256"
            }
          ],
          "internalType": "struct Ride.RIDE",
          "name": "",
          "type": "tuple"
        }
      ],
      "stateMutability": "view",
      "type": "function",
      "constant": true
    },
    {
      "inputs": [
        {
          "internalType": "uint256",
          "name": "_rideId",
          "type": "uint256"
        }
      ],
      "name": "cancelRide",
      "outputs": [],
      "stateMutability": "nonpayable",
      "type": "function"
    },
    {
      "inputs": [
        {
          "internalType": "uint256",
          "name": "_rideId",
          "type": "uint256"
        }
      ],
      "name": "completeRide",
      "outputs": [],
      "stateMutability": "nonpayable",
      "type": "function"
    },
    {
      "inputs": [],
      "name": "getRideCount",
      "outputs": [
        {
          "internalType": "uint256",
          "name": "",
          "type": "uint256"
        }
      ],
      "stateMutability": "view",
      "type": "function",
      "constant": true
    },
    {
      "inputs": [
        {
          "internalType": "uint256",
          "name": "_secondsUntilAuctionEnds",
          "type": "uint256"
        },
        {
          "components": [
            {
              "internalType": "string",
              "name": "pickup",
              "type": "string"
            },
            {
              "internalType": "string",
              "name": "destination",
              "type": "string"
            },
            {
              "internalType": "uint256",
              "name": "distance",
              "type": "uint256"
            },
            {
              "internalType": "uint256",
              "name": "price",
              "type": "uint256"
            }
          ],
          "internalType": "struct Ride.RIDE_DETAILS",
          "name": "_details",
          "type": "tuple"
        }
      ],
      "name": "addToAuction",
      "outputs": [
        {
          "internalType": "uint256",
          "name": "",
          "type": "uint256"
        }
      ],
      "stateMutability": "nonpayable",
      "type": "function"
    },
    {
      "inputs": [],
      "name": "getBalanceOfAddress",
      "outputs": [
        {
          "internalType": "uint256",
          "name": "",
          "type": "uint256"
        }
      ],
      "stateMutability": "view",
      "type": "function",
      "constant": true
    },
    {
      "inputs": [
        {
          "internalType": "uint256",
          "name": "bidamt",
          "type": "uint256"
        }
      ],
      "name": "transferThisFrom",
      "outputs": [],
      "stateMutability": "payable",
      "type": "function",
      "payable": true
    },
    {
      "inputs": [
        {
          "internalType": "uint256",
          "name": "_auctionId",
          "type": "uint256"
        },
        {
          "internalType": "uint256",
          "name": "bidamt",
          "type": "uint256"
        }
      ],
      "name": "bid",
      "outputs": [],
      "stateMutability": "payable",
      "type": "function",
      "payable": true
    },
    {
      "inputs": [
        {
          "internalType": "uint256[]",
          "name": "rideIds",
          "type": "uint256[]"
        }
      ],
      "name": "getAllAuctions",
      "outputs": [
        {
          "components": [
            {
              "internalType": "uint256",
              "name": "id",
              "type": "uint256"
            },
            {
              "internalType": "uint256",
              "name": "latestHighestBid",
              "type": "uint256"
            },
            {
              "internalType": "address",
              "name": "currentBidder",
              "type": "address"
            },
            {
              "internalType": "address",
              "name": "driver",
              "type": "address"
            },
            {
              "internalType": "bool",
              "name": "isAuctionGoingOn",
              "type": "bool"
            },
            {
              "components": [
                {
                  "internalType": "string",
                  "name": "pickup",
                  "type": "string"
                },
                {
                  "internalType": "string",
                  "name": "destination",
                  "type": "string"
                },
                {
                  "internalType": "uint256",
                  "name": "distance",
                  "type": "uint256"
                },
                {
                  "internalType": "uint256",
                  "name": "price",
                  "type": "uint256"
                }
              ],
              "internalType": "struct Ride.RIDE_DETAILS",
              "name": "ride",
              "type": "tuple"
            },
            {
              "internalType": "uint256",
              "name": "timeOfPosting",
              "type": "uint256"
            },
            {
              "internalType": "uint256",
              "name": "secondsUntilAuctionEnds",
              "type": "uint256"
            }
          ],
          "internalType": "struct Ride.AUCTION[]",
          "name": "",
          "type": "tuple[]"
        }
      ],
      "stateMutability": "view",
      "type": "function",
      "constant": true
    },
    {
      "inputs": [
        {
          "internalType": "uint256",
          "name": "_auctionId",
          "type": "uint256"
        }
      ],
      "name": "fetchAuction",
      "outputs": [
        {
          "components": [
            {
              "internalType": "uint256",
              "name": "id",
              "type": "uint256"
            },
            {
              "internalType": "uint256",
              "name": "latestHighestBid",
              "type": "uint256"
            },
            {
              "internalType": "address",
              "name": "currentBidder",
              "type": "address"
            },
            {
              "internalType": "address",
              "name": "driver",
              "type": "address"
            },
            {
              "internalType": "bool",
              "name": "isAuctionGoingOn",
              "type": "bool"
            },
            {
              "components": [
                {
                  "internalType": "string",
                  "name": "pickup",
                  "type": "string"
                },
                {
                  "internalType": "string",
                  "name": "destination",
                  "type": "string"
                },
                {
                  "internalType": "uint256",
                  "name": "distance",
                  "type": "uint256"
                },
                {
                  "internalType": "uint256",
                  "name": "price",
                  "type": "uint256"
                }
              ],
              "internalType": "struct Ride.RIDE_DETAILS",
              "name": "ride",
              "type": "tuple"
            },
            {
              "internalType": "uint256",
              "name": "timeOfPosting",
              "type": "uint256"
            },
            {
              "internalType": "uint256",
              "name": "secondsUntilAuctionEnds",
              "type": "uint256"
            }
          ],
          "internalType": "struct Ride.AUCTION",
          "name": "",
          "type": "tuple"
        }
      ],
      "stateMutability": "view",
      "type": "function",
      "constant": true
    },
    {
      "inputs": [],
      "name": "getAuctionCount",
      "outputs": [
        {
          "internalType": "uint256",
          "name": "",
          "type": "uint256"
        }
      ],
      "stateMutability": "view",
      "type": "function",
      "constant": true
    }
  ],
  "bytecode": "0x6080604052600060015560006003556000600b553480156200002057600080fd5b5060405162005a8e38038062005a8e8339818101604052810190620000469190620001a1565b620000666200005a620000be60201b60201c565b620000c660201b60201c565b80600760006101000a81548173ffffffffffffffffffffffffffffffffffffffff021916908373ffffffffffffffffffffffffffffffffffffffff16021790555060006005819055506000600681905550506200021b565b600033905090565b60008060009054906101000a900473ffffffffffffffffffffffffffffffffffffffff169050816000806101000a81548173ffffffffffffffffffffffffffffffffffffffff021916908373ffffffffffffffffffffffffffffffffffffffff1602179055508173ffffffffffffffffffffffffffffffffffffffff168173ffffffffffffffffffffffffffffffffffffffff167f8be0079c531659141344cd1fd0a4f28419497f9722a3daafe3b4186f6b6457e060405160405180910390a35050565b6000815190506200019b8162000201565b92915050565b600060208284031215620001b457600080fd5b6000620001c4848285016200018a565b91505092915050565b6000620001da82620001e1565b9050919050565b600073ffffffffffffffffffffffffffffffffffffffff82169050919050565b6200020c81620001cd565b81146200021857600080fd5b50565b615863806200022b6000396000f3fe6080604052600436106101665760003560e01c80638959a5d1116100d1578063c416dd0b1161008a578063cb949e5111610064578063cb949e5114610567578063e8a1dade146105a4578063f2fde38b146105e1578063f8fd2fa21461060a57610166565b8063c416dd0b146104ea578063c44e664014610513578063c69b2cf61461053e57610166565b80638959a5d1146103b45780638da5cb5b146103df578063a2ae19e31461040a578063a6f07b2914610447578063b762857514610470578063bb67fe80146104ad57610166565b80634aa60186116101235780634aa6018614610298578063598647f8146102dc57806365c301ab146102f8578063715018a6146103355780637195e1241461034c578063787660c31461038957610166565b8063155026121461016b5780631a977d1c14610196578063336989ae146101d3578063359585e61461021657806335f5768414610253578063458c7a421461027c575b600080fd5b34801561017757600080fd5b50610180610647565b60405161018d91906152e6565b60405180910390f35b3480156101a257600080fd5b506101bd60048036038101906101b89190614291565b6106f9565b6040516101ca919061503f565b60405180910390f35b3480156101df57600080fd5b506101fa60048036038101906101f59190614062565b610848565b60405161020d9796959493929190615301565b60405180910390f35b34801561022257600080fd5b5061023d60048036038101906102389190614136565b610b52565b60405161024a91906152e6565b60405180910390f35b34801561025f57600080fd5b5061027a600480360381019061027591906143aa565b610c16565b005b61029660048036038101906102919190614504565b610e05565b005b3480156102a457600080fd5b506102bf60048036038101906102ba9190614062565b610eba565b6040516102d3989796959493929190615393565b60405180910390f35b6102f660048036038101906102f191906145aa565b611252565b005b34801561030457600080fd5b5061031f600480360381019061031a9190614062565b6116b5565b60405161032c91906152a2565b60405180910390f35b34801561034157600080fd5b5061034a611ae1565b005b34801561035857600080fd5b50610373600480360381019061036e9190614504565b611af5565b604051610380919061525e565b60405180910390f35b34801561039557600080fd5b5061039e611d5e565b6040516103ab91906150dc565b60405180910390f35b3480156103c057600080fd5b506103c9611fdd565b6040516103d691906152e6565b60405180910390f35b3480156103eb57600080fd5b506103f4611fe7565b604051610401919061503f565b60405180910390f35b34801561041657600080fd5b50610431600480360381019061042c91906140f5565b612010565b60405161043e91906152e6565b60405180910390f35b34801561045357600080fd5b5061046e60048036038101906104699190614504565b6122c3565b005b34801561047c57600080fd5b506104976004803603810190610492919061408b565b612587565b6040516104a491906150ba565b60405180910390f35b3480156104b957600080fd5b506104d460048036038101906104cf9190614504565b6128a7565b6040516104e191906152c4565b60405180910390f35b3480156104f657600080fd5b50610511600480360381019061050c9190614504565b612b08565b005b34801561051f57600080fd5b50610528612d71565b60405161053591906152e6565b60405180910390f35b34801561054a57600080fd5b5061056560048036038101906105609190614504565b612d7b565b005b34801561057357600080fd5b5061058e60048036038101906105899190614062565b612f84565b60405161059b9190615280565b60405180910390f35b3480156105b057600080fd5b506105cb60048036038101906105c69190614556565b61331d565b6040516105d891906152e6565b60405180910390f35b3480156105ed57600080fd5b5061060860048036038101906106039190614062565b613549565b005b34801561061657600080fd5b50610631600480360381019061062c91906141a2565b6135cd565b60405161063e919061503f565b60405180910390f35b6000600760009054906101000a900473ffffffffffffffffffffffffffffffffffffffff1673ffffffffffffffffffffffffffffffffffffffff166370a08231336040518263ffffffff1660e01b81526004016106a4919061503f565b60206040518083038186803b1580156106bc57600080fd5b505afa1580156106d0573d6000803e3d6000fd5b505050506040513d601f19601f820116820180604052508101906106f4919061452d565b905090565b60006001600081548092919061070e906156be565b91905055506000600260003373ffffffffffffffffffffffffffffffffffffffff1673ffffffffffffffffffffffffffffffffffffffff1681526020019081526020016000209050600154816000018190555087816001019080519060200190610779929190613be0565b5086816002019080519060200190610792929190613be0565b50858160030190805190602001906107ab929190613be0565b50848160040190805190602001906107c4929190613be0565b50828160060190805190602001906107dd929190613be0565b50838160050190805190602001906107f6929190613be0565b50338160070160006101000a81548173ffffffffffffffffffffffffffffffffffffffff021916908373ffffffffffffffffffffffffffffffffffffffff160217905550339150509695505050505050565b60046020528060005260406000206000915090508060000154908060010180546108719061568c565b80601f016020809104026020016040519081016040528092919081815260200182805461089d9061568c565b80156108ea5780601f106108bf576101008083540402835291602001916108ea565b820191906000526020600020905b8154815290600101906020018083116108cd57829003601f168201915b5050505050908060020180546108ff9061568c565b80601f016020809104026020016040519081016040528092919081815260200182805461092b9061568c565b80156109785780601f1061094d57610100808354040283529160200191610978565b820191906000526020600020905b81548152906001019060200180831161095b57829003601f168201915b50505050509080600301805461098d9061568c565b80601f01602080910402602001604051908101604052809291908181526020018280546109b99061568c565b8015610a065780601f106109db57610100808354040283529160200191610a06565b820191906000526020600020905b8154815290600101906020018083116109e957829003601f168201915b505050505090806004018054610a1b9061568c565b80601f0160208091040260200160405190810160405280929190818152602001828054610a479061568c565b8015610a945780601f10610a6957610100808354040283529160200191610a94565b820191906000526020600020905b815481529060010190602001808311610a7757829003601f168201915b505050505090806005018054610aa99061568c565b80601f0160208091040260200160405190810160405280929190818152602001828054610ad59061568c565b8015610b225780601f10610af757610100808354040283529160200191610b22565b820191906000526020600020905b815481529060010190602001808311610b0557829003601f168201915b5050505050908060060160009054906101000a900473ffffffffffffffffffffffffffffffffffffffff16905087565b600080600190505b600b548111610c0a578380519060200120600a6000838152602001908152602001600020600201604051610b8e9190615028565b6040518091039020148015610bd357508280519060200120600a6000838152602001908152602001600020600301604051610bc99190615028565b6040518091039020145b15610bf757600a600082815260200190815260200160002060000154915050610c10565b8080610c02906156be565b915050610b5a565b60009150505b92915050565b600b6000815480929190610c29906156be565b919050555087600a6000600b5481526020019081526020016000206001019080519060200190610c5a929190613be0565b5086600a6000600b5481526020019081526020016000206002019080519060200190610c87929190613be0565b5085600a6000600b5481526020019081526020016000206003019080519060200190610cb4929190613be0565b5084600a6000600b5481526020019081526020016000206004019080519060200190610ce1929190613be0565b5033600a6000600b54815260200190815260200160002060090160006101000a81548173ffffffffffffffffffffffffffffffffffffffff021916908373ffffffffffffffffffffffffffffffffffffffff16021790555081600a6000600b5481526020019081526020016000206007019080519060200190610d65929190613be0565b5080600a6000600b5481526020019081526020016000206008019080519060200190610d92929190613be0565b5082600a6000600b54815260200190815260200160002060060181905550600b54600a6000600b548152602001908152602001600020600001819055506000831115610dec57610de6888987878c8d6106f9565b50610dfb565b610df988888a878c6135cd565b505b5050505050505050565b600760009054906101000a900473ffffffffffffffffffffffffffffffffffffffff1673ffffffffffffffffffffffffffffffffffffffff166323b872dd3330846040518463ffffffff1660e01b8152600401610e649392919061505a565b602060405180830381600087803b158015610e7e57600080fd5b505af1158015610e92573d6000803e3d6000fd5b505050506040513d601f19601f82011682018060405250810190610eb691906140cc565b5050565b6002602052806000526040600020600091509050806000015490806001018054610ee39061568c565b80601f0160208091040260200160405190810160405280929190818152602001828054610f0f9061568c565b8015610f5c5780601f10610f3157610100808354040283529160200191610f5c565b820191906000526020600020905b815481529060010190602001808311610f3f57829003601f168201915b505050505090806002018054610f719061568c565b80601f0160208091040260200160405190810160405280929190818152602001828054610f9d9061568c565b8015610fea5780601f10610fbf57610100808354040283529160200191610fea565b820191906000526020600020905b815481529060010190602001808311610fcd57829003601f168201915b505050505090806003018054610fff9061568c565b80601f016020809104026020016040519081016040528092919081815260200182805461102b9061568c565b80156110785780601f1061104d57610100808354040283529160200191611078565b820191906000526020600020905b81548152906001019060200180831161105b57829003601f168201915b50505050509080600401805461108d9061568c565b80601f01602080910402602001604051908101604052809291908181526020018280546110b99061568c565b80156111065780601f106110db57610100808354040283529160200191611106565b820191906000526020600020905b8154815290600101906020018083116110e957829003601f168201915b50505050509080600501805461111b9061568c565b80601f01602080910402602001604051908101604052809291908181526020018280546111479061568c565b80156111945780601f1061116957610100808354040283529160200191611194565b820191906000526020600020905b81548152906001019060200180831161117757829003601f168201915b5050505050908060060180546111a99061568c565b80601f01602080910402602001604051908101604052809291908181526020018280546111d59061568c565b80156112225780601f106111f757610100808354040283529160200191611222565b820191906000526020600020905b81548152906001019060200180831161120557829003601f168201915b5050505050908060070160009054906101000a900473ffffffffffffffffffffffffffffffffffffffff16905088565b61125b826139ed565b6000600960008481526020019081526020016000209050600115158160030160149054906101000a900460ff161515146112ca576040517f08c379a00000000000000000000000000000000000000000000000000000000081526004016112c19061517e565b60405180910390fd5b8060030160009054906101000a900473ffffffffffffffffffffffffffffffffffffffff1673ffffffffffffffffffffffffffffffffffffffff163373ffffffffffffffffffffffffffffffffffffffff16141561135d576040517f08c379a00000000000000000000000000000000000000000000000000000000081526004016113549061513e565b60405180910390fd5b600760009054906101000a900473ffffffffffffffffffffffffffffffffffffffff1673ffffffffffffffffffffffffffffffffffffffff166370a08231336040518263ffffffff1660e01b81526004016113b8919061503f565b60206040518083038186803b1580156113d057600080fd5b505afa1580156113e4573d6000803e3d6000fd5b505050506040513d601f19601f82011682018060405250810190611408919061452d565b8210611449576040517f08c379a00000000000000000000000000000000000000000000000000000000081526004016114409061511e565b60405180910390fd5b8060010154821161148f576040517f08c379a00000000000000000000000000000000000000000000000000000000081526004016114869061523e565b60405180910390fd5b60008160020160009054906101000a900473ffffffffffffffffffffffffffffffffffffffff16905060008260010154905060008360010181905550600760009054906101000a900473ffffffffffffffffffffffffffffffffffffffff1673ffffffffffffffffffffffffffffffffffffffff166323b872dd3330876040518463ffffffff1660e01b815260040161152a9392919061505a565b602060405180830381600087803b15801561154457600080fd5b505af1158015611558573d6000803e3d6000fd5b505050506040513d601f19601f8201168201806040525081019061157c91906140cc565b50600073ffffffffffffffffffffffffffffffffffffffff168273ffffffffffffffffffffffffffffffffffffffff161461166257600760009054906101000a900473ffffffffffffffffffffffffffffffffffffffff1673ffffffffffffffffffffffffffffffffffffffff1663a9059cbb83836040518363ffffffff1660e01b815260040161160e929190615091565b602060405180830381600087803b15801561162857600080fd5b505af115801561163c573d6000803e3d6000fd5b505050506040513d601f19601f8201168201806040525081019061166091906140cc565b505b838360010181905550338360020160006101000a81548173ffffffffffffffffffffffffffffffffffffffff021916908373ffffffffffffffffffffffffffffffffffffffff1602179055505050505050565b6116bd613c66565b6000600260008473ffffffffffffffffffffffffffffffffffffffff1673ffffffffffffffffffffffffffffffffffffffff16815260200190815260200160002060405180610100016040529081600082015481526020016001820180546117249061568c565b80601f01602080910402602001604051908101604052809291908181526020018280546117509061568c565b801561179d5780601f106117725761010080835404028352916020019161179d565b820191906000526020600020905b81548152906001019060200180831161178057829003601f168201915b505050505081526020016002820180546117b69061568c565b80601f01602080910402602001604051908101604052809291908181526020018280546117e29061568c565b801561182f5780601f106118045761010080835404028352916020019161182f565b820191906000526020600020905b81548152906001019060200180831161181257829003601f168201915b505050505081526020016003820180546118489061568c565b80601f01602080910402602001604051908101604052809291908181526020018280546118749061568c565b80156118c15780601f10611896576101008083540402835291602001916118c1565b820191906000526020600020905b8154815290600101906020018083116118a457829003601f168201915b505050505081526020016004820180546118da9061568c565b80601f01602080910402602001604051908101604052809291908181526020018280546119069061568c565b80156119535780601f1061192857610100808354040283529160200191611953565b820191906000526020600020905b81548152906001019060200180831161193657829003601f168201915b5050505050815260200160058201805461196c9061568c565b80601f01602080910402602001604051908101604052809291908181526020018280546119989061568c565b80156119e55780601f106119ba576101008083540402835291602001916119e5565b820191906000526020600020905b8154815290600101906020018083116119c857829003601f168201915b505050505081526020016006820180546119fe9061568c565b80601f0160208091040260200160405190810160405280929190818152602001828054611a2a9061568c565b8015611a775780601f10611a4c57610100808354040283529160200191611a77565b820191906000526020600020905b815481529060010190602001808311611a5a57829003601f168201915b505050505081526020016007820160009054906101000a900473ffffffffffffffffffffffffffffffffffffffff1673ffffffffffffffffffffffffffffffffffffffff1673ffffffffffffffffffffffffffffffffffffffff1681525050905080915050919050565b611ae9613a96565b611af36000613b14565b565b611afd613cc1565b600960008381526020019081526020016000206040518061010001604052908160008201548152602001600182015481526020016002820160009054906101000a900473ffffffffffffffffffffffffffffffffffffffff1673ffffffffffffffffffffffffffffffffffffffff1673ffffffffffffffffffffffffffffffffffffffff1681526020016003820160009054906101000a900473ffffffffffffffffffffffffffffffffffffffff1673ffffffffffffffffffffffffffffffffffffffff1673ffffffffffffffffffffffffffffffffffffffff1681526020016003820160149054906101000a900460ff1615151515815260200160048201604051806080016040529081600082018054611c179061568c565b80601f0160208091040260200160405190810160405280929190818152602001828054611c439061568c565b8015611c905780601f10611c6557610100808354040283529160200191611c90565b820191906000526020600020905b815481529060010190602001808311611c7357829003601f168201915b50505050508152602001600182018054611ca99061568c565b80601f0160208091040260200160405190810160405280929190818152602001828054611cd59061568c565b8015611d225780601f10611cf757610100808354040283529160200191611d22565b820191906000526020600020905b815481529060010190602001808311611d0557829003601f168201915b50505050508152602001600282015481526020016003820154815250508152602001600882015481526020016009820154815250509050919050565b606080600080600190505b6005548111611fd4576000819050600860008281526020019081526020016000206040518060c0016040529081600082015481526020016001820160009054906101000a900473ffffffffffffffffffffffffffffffffffffffff1673ffffffffffffffffffffffffffffffffffffffff1673ffffffffffffffffffffffffffffffffffffffff1681526020016002820160009054906101000a900473ffffffffffffffffffffffffffffffffffffffff1673ffffffffffffffffffffffffffffffffffffffff1673ffffffffffffffffffffffffffffffffffffffff1681526020016002820160149054906101000a900460ff166003811115611e96577f4e487b7100000000000000000000000000000000000000000000000000000000600052602160045260246000fd5b6003811115611ece577f4e487b7100000000000000000000000000000000000000000000000000000000600052602160045260246000fd5b8152602001600382018054611ee29061568c565b80601f0160208091040260200160405190810160405280929190818152602001828054611f0e9061568c565b8015611f5b5780601f10611f3057610100808354040283529160200191611f5b565b820191906000526020600020905b815481529060010190602001808311611f3e57829003601f168201915b50505050508152602001600482015481525050848481518110611fa7577f4e487b7100000000000000000000000000000000000000000000000000000000600052603260045260246000fd5b60200260200101819052508280611fbd906156be565b935050508080611fcc906156be565b915050611d69565b50819250505090565b6000600554905090565b60008060009054906101000a900473ffffffffffffffffffffffffffffffffffffffff16905090565b600080600260003373ffffffffffffffffffffffffffffffffffffffff1673ffffffffffffffffffffffffffffffffffffffff1681526020019081526020016000206000015411612096576040517f08c379a000000000000000000000000000000000000000000000000000000000815260040161208d9061521e565b60405180910390fd5b600560008154809291906120a9906156be565b91905055506120b6613d3a565b60055481600001818152505033816020019073ffffffffffffffffffffffffffffffffffffffff16908173ffffffffffffffffffffffffffffffffffffffff1681525050600081606001906003811115612139577f4e487b7100000000000000000000000000000000000000000000000000000000600052602160045260246000fd5b90816003811115612173577f4e487b7100000000000000000000000000000000000000000000000000000000600052602160045260246000fd5b81525050828160800181905250428160a0018181525050806008600060055481526020019081526020016000206000820151816000015560208201518160010160006101000a81548173ffffffffffffffffffffffffffffffffffffffff021916908373ffffffffffffffffffffffffffffffffffffffff16021790555060408201518160020160006101000a81548173ffffffffffffffffffffffffffffffffffffffff021916908373ffffffffffffffffffffffffffffffffffffffff16021790555060608201518160020160146101000a81548160ff02191690836003811115612289577f4e487b7100000000000000000000000000000000000000000000000000000000600052602160045260246000fd5b021790555060808201518160030190805190602001906122aa929190613be0565b5060a08201518160040155905050600554915050919050565b80600060086000838152602001908152602001600020600001541161231d576040517f08c379a0000000000000000000000000000000000000000000000000000000008152600401612314906151de565b60405180910390fd5b60016003811115612357577f4e487b7100000000000000000000000000000000000000000000000000000000600052602160045260246000fd5b6008600084815260200190815260200160002060020160149054906101000a900460ff1660038111156123b3577f4e487b7100000000000000000000000000000000000000000000000000000000600052602160045260246000fd5b146123f3576040517f08c379a00000000000000000000000000000000000000000000000000000000081526004016123ea9061519e565b60405180910390fd5b3373ffffffffffffffffffffffffffffffffffffffff166008600084815260200190815260200160002060020160009054906101000a900473ffffffffffffffffffffffffffffffffffffffff1673ffffffffffffffffffffffffffffffffffffffff1614806124c457503373ffffffffffffffffffffffffffffffffffffffff166008600084815260200190815260200160002060010160009054906101000a900473ffffffffffffffffffffffffffffffffffffffff1673ffffffffffffffffffffffffffffffffffffffff16145b612503576040517f08c379a00000000000000000000000000000000000000000000000000000000081526004016124fa906151be565b60405180910390fd5b60026008600084815260200190815260200160002060020160146101000a81548160ff02191690836003811115612563577f4e487b7100000000000000000000000000000000000000000000000000000000600052602160045260246000fd5b02179055504260086000848152602001908152602001600020600401819055505050565b6060806000805b845181101561289c5760008582815181106125d2577f4e487b7100000000000000000000000000000000000000000000000000000000600052603260045260246000fd5b60200260200101519050600960008281526020019081526020016000206040518061010001604052908160008201548152602001600182015481526020016002820160009054906101000a900473ffffffffffffffffffffffffffffffffffffffff1673ffffffffffffffffffffffffffffffffffffffff1673ffffffffffffffffffffffffffffffffffffffff1681526020016003820160009054906101000a900473ffffffffffffffffffffffffffffffffffffffff1673ffffffffffffffffffffffffffffffffffffffff1673ffffffffffffffffffffffffffffffffffffffff1681526020016003820160149054906101000a900460ff16151515158152602001600482016040518060800160405290816000820180546126f69061568c565b80601f01602080910402602001604051908101604052809291908181526020018280546127229061568c565b801561276f5780601f106127445761010080835404028352916020019161276f565b820191906000526020600020905b81548152906001019060200180831161275257829003601f168201915b505050505081526020016001820180546127889061568c565b80601f01602080910402602001604051908101604052809291908181526020018280546127b49061568c565b80156128015780601f106127d657610100808354040283529160200191612801565b820191906000526020600020905b8154815290600101906020018083116127e457829003601f168201915b505050505081526020016002820154815260200160038201548152505081526020016008820154815260200160098201548152505084848151811061286f577f4e487b7100000000000000000000000000000000000000000000000000000000600052603260045260246000fd5b60200260200101819052508280612885906156be565b935050508080612894906156be565b91505061258e565b508192505050919050565b6128af613d3a565b816000600860008381526020019081526020016000206000015411612909576040517f08c379a0000000000000000000000000000000000000000000000000000000008152600401612900906151de565b60405180910390fd5b600860008481526020019081526020016000206040518060c0016040529081600082015481526020016001820160009054906101000a900473ffffffffffffffffffffffffffffffffffffffff1673ffffffffffffffffffffffffffffffffffffffff1673ffffffffffffffffffffffffffffffffffffffff1681526020016002820160009054906101000a900473ffffffffffffffffffffffffffffffffffffffff1673ffffffffffffffffffffffffffffffffffffffff1673ffffffffffffffffffffffffffffffffffffffff1681526020016002820160149054906101000a900460ff166003811115612a28577f4e487b7100000000000000000000000000000000000000000000000000000000600052602160045260246000fd5b6003811115612a60577f4e487b7100000000000000000000000000000000000000000000000000000000600052602160045260246000fd5b8152602001600382018054612a749061568c565b80601f0160208091040260200160405190810160405280929190818152602001828054612aa09061568c565b8015612aed5780601f10612ac257610100808354040283529160200191612aed565b820191906000526020600020905b815481529060010190602001808311612ad057829003601f168201915b50505050508152602001600482015481525050915050919050565b60016003811115612b42577f4e487b7100000000000000000000000000000000000000000000000000000000600052602160045260246000fd5b6008600083815260200190815260200160002060020160149054906101000a900460ff166003811115612b9e577f4e487b7100000000000000000000000000000000000000000000000000000000600052602160045260246000fd5b14612bde576040517f08c379a0000000000000000000000000000000000000000000000000000000008152600401612bd59061519e565b60405180910390fd5b3373ffffffffffffffffffffffffffffffffffffffff166008600083815260200190815260200160002060020160009054906101000a900473ffffffffffffffffffffffffffffffffffffffff1673ffffffffffffffffffffffffffffffffffffffff161480612caf57503373ffffffffffffffffffffffffffffffffffffffff166008600083815260200190815260200160002060010160009054906101000a900473ffffffffffffffffffffffffffffffffffffffff1673ffffffffffffffffffffffffffffffffffffffff16145b612cee576040517f08c379a0000000000000000000000000000000000000000000000000000000008152600401612ce5906151be565b60405180910390fd5b60036008600083815260200190815260200160002060020160146101000a81548160ff02191690836003811115612d4e577f4e487b7100000000000000000000000000000000000000000000000000000000600052602160045260246000fd5b021790555042600860008381526020019081526020016000206004018190555050565b6000600554905090565b806000600860008381526020019081526020016000206000015411612dd5576040517f08c379a0000000000000000000000000000000000000000000000000000000008152600401612dcc906151de565b60405180910390fd5b60006003811115612e0f577f4e487b7100000000000000000000000000000000000000000000000000000000600052602160045260246000fd5b6008600084815260200190815260200160002060020160149054906101000a900460ff166003811115612e6b577f4e487b7100000000000000000000000000000000000000000000000000000000600052602160045260246000fd5b14612eab576040517f08c379a0000000000000000000000000000000000000000000000000000000008152600401612ea2906150fe565b60405180910390fd5b336008600084815260200190815260200160002060020160006101000a81548173ffffffffffffffffffffffffffffffffffffffff021916908373ffffffffffffffffffffffffffffffffffffffff16021790555060016008600084815260200190815260200160002060020160146101000a81548160ff02191690836003811115612f60577f4e487b7100000000000000000000000000000000000000000000000000000000600052602160045260246000fd5b02179055504260086000848152602001908152602001600020600401819055505050565b612f8c613dd4565b6000600460008473ffffffffffffffffffffffffffffffffffffffff1673ffffffffffffffffffffffffffffffffffffffff1681526020019081526020016000206040518060e001604052908160008201548152602001600182018054612ff29061568c565b80601f016020809104026020016040519081016040528092919081815260200182805461301e9061568c565b801561306b5780601f106130405761010080835404028352916020019161306b565b820191906000526020600020905b81548152906001019060200180831161304e57829003601f168201915b505050505081526020016002820180546130849061568c565b80601f01602080910402602001604051908101604052809291908181526020018280546130b09061568c565b80156130fd5780601f106130d2576101008083540402835291602001916130fd565b820191906000526020600020905b8154815290600101906020018083116130e057829003601f168201915b505050505081526020016003820180546131169061568c565b80601f01602080910402602001604051908101604052809291908181526020018280546131429061568c565b801561318f5780601f106131645761010080835404028352916020019161318f565b820191906000526020600020905b81548152906001019060200180831161317257829003601f168201915b505050505081526020016004820180546131a89061568c565b80601f01602080910402602001604051908101604052809291908181526020018280546131d49061568c565b80156132215780601f106131f657610100808354040283529160200191613221565b820191906000526020600020905b81548152906001019060200180831161320457829003601f168201915b5050505050815260200160058201805461323a9061568c565b80601f01602080910402602001604051908101604052809291908181526020018280546132669061568c565b80156132b35780601f10613288576101008083540402835291602001916132b3565b820191906000526020600020905b81548152906001019060200180831161329657829003601f168201915b505050505081526020016006820160009054906101000a900473ffffffffffffffffffffffffffffffffffffffff1673ffffffffffffffffffffffffffffffffffffffff1673ffffffffffffffffffffffffffffffffffffffff1681525050905080915050919050565b600060066000815480929190613332906156be565b919050555061333f613cc1565b60065481600001818152505060008160200181815250506000816040019073ffffffffffffffffffffffffffffffffffffffff16908173ffffffffffffffffffffffffffffffffffffffff168152505033816060019073ffffffffffffffffffffffffffffffffffffffff16908173ffffffffffffffffffffffffffffffffffffffff16815250506001816080019015159081151581525050828160a00181905250428160c0018181525050838160e001818152505080600960006006548152602001908152602001600020600082015181600001556020820151816001015560408201518160020160006101000a81548173ffffffffffffffffffffffffffffffffffffffff021916908373ffffffffffffffffffffffffffffffffffffffff16021790555060608201518160030160006101000a81548173ffffffffffffffffffffffffffffffffffffffff021916908373ffffffffffffffffffffffffffffffffffffffff16021790555060808201518160030160146101000a81548160ff02191690831515021790555060a08201518160040160008201518160000190805190602001906134f2929190613be0565b50602082015181600101908051906020019061350f929190613be0565b506040820151816002015560608201518160030155505060c0820151816008015560e0820151816009015590505060065491505092915050565b613551613a96565b600073ffffffffffffffffffffffffffffffffffffffff168173ffffffffffffffffffffffffffffffffffffffff1614156135c1576040517f08c379a00000000000000000000000000000000000000000000000000000000081526004016135b89061515e565b60405180910390fd5b6135ca81613b14565b50565b6000600360008154809291906135e2906156be565b91905055506000600460003373ffffffffffffffffffffffffffffffffffffffff1673ffffffffffffffffffffffffffffffffffffffff1681526020019081526020016000206040518060e00160405290816000820154815260200160018201805461364d9061568c565b80601f01602080910402602001604051908101604052809291908181526020018280546136799061568c565b80156136c65780601f1061369b576101008083540402835291602001916136c6565b820191906000526020600020905b8154815290600101906020018083116136a957829003601f168201915b505050505081526020016002820180546136df9061568c565b80601f016020809104026020016040519081016040528092919081815260200182805461370b9061568c565b80156137585780601f1061372d57610100808354040283529160200191613758565b820191906000526020600020905b81548152906001019060200180831161373b57829003601f168201915b505050505081526020016003820180546137719061568c565b80601f016020809104026020016040519081016040528092919081815260200182805461379d9061568c565b80156137ea5780601f106137bf576101008083540402835291602001916137ea565b820191906000526020600020905b8154815290600101906020018083116137cd57829003601f168201915b505050505081526020016004820180546138039061568c565b80601f016020809104026020016040519081016040528092919081815260200182805461382f9061568c565b801561387c5780601f106138515761010080835404028352916020019161387c565b820191906000526020600020905b81548152906001019060200180831161385f57829003601f168201915b505050505081526020016005820180546138959061568c565b80601f01602080910402602001604051908101604052809291908181526020018280546138c19061568c565b801561390e5780601f106138e35761010080835404028352916020019161390e565b820191906000526020600020905b8154815290600101906020018083116138f157829003601f168201915b505050505081526020016006820160009054906101000a900473ffffffffffffffffffffffffffffffffffffffff1673ffffffffffffffffffffffffffffffffffffffff1673ffffffffffffffffffffffffffffffffffffffff16815250509050600354816000018181525050868160200181905250858160400181905250848160600181905250838160800181905250828160a00181905250338160c0019073ffffffffffffffffffffffffffffffffffffffff16908173ffffffffffffffffffffffffffffffffffffffff16815250503391505095945050505050565b600115156009600083815260200190815260200160002060030160149054906101000a900460ff161515148015613a5e5750426009600060065481526020019081526020016000206009015460096000600654815260200190815260200160002060080154613a5c9190615587565b105b15613a935760006009600083815260200190815260200160002060030160146101000a81548160ff0219169083151502179055505b50565b613a9e613bd8565b73ffffffffffffffffffffffffffffffffffffffff16613abc611fe7565b73ffffffffffffffffffffffffffffffffffffffff1614613b12576040517f08c379a0000000000000000000000000000000000000000000000000000000008152600401613b09906151fe565b60405180910390fd5b565b60008060009054906101000a900473ffffffffffffffffffffffffffffffffffffffff169050816000806101000a81548173ffffffffffffffffffffffffffffffffffffffff021916908373ffffffffffffffffffffffffffffffffffffffff1602179055508173ffffffffffffffffffffffffffffffffffffffff168173ffffffffffffffffffffffffffffffffffffffff167f8be0079c531659141344cd1fd0a4f28419497f9722a3daafe3b4186f6b6457e060405160405180910390a35050565b600033905090565b828054613bec9061568c565b90600052602060002090601f016020900481019282613c0e5760008555613c55565b82601f10613c2757805160ff1916838001178555613c55565b82800160010185558215613c55579182015b82811115613c54578251825591602001919060010190613c39565b5b509050613c629190613e27565b5090565b60405180610100016040528060008152602001606081526020016060815260200160608152602001606081526020016060815260200160608152602001600073ffffffffffffffffffffffffffffffffffffffff1681525090565b6040518061010001604052806000815260200160008152602001600073ffffffffffffffffffffffffffffffffffffffff168152602001600073ffffffffffffffffffffffffffffffffffffffff168152602001600015158152602001613d26613e44565b815260200160008152602001600081525090565b6040518060c0016040528060008152602001600073ffffffffffffffffffffffffffffffffffffffff168152602001600073ffffffffffffffffffffffffffffffffffffffff16815260200160006003811115613dc0577f4e487b7100000000000000000000000000000000000000000000000000000000600052602160045260246000fd5b815260200160608152602001600081525090565b6040518060e00160405280600081526020016060815260200160608152602001606081526020016060815260200160608152602001600073ffffffffffffffffffffffffffffffffffffffff1681525090565b5b80821115613e40576000816000905550600101613e28565b5090565b6040518060800160405280606081526020016060815260200160008152602001600081525090565b6000613e7f613e7a8461546c565b61543b565b90508083825260208201905082856020860282011115613e9e57600080fd5b60005b85811015613ece5781613eb48882614038565b845260208401935060208301925050600181019050613ea1565b5050509392505050565b6000613eeb613ee684615498565b61543b565b905082815260208101848484011115613f0357600080fd5b613f0e84828561564a565b509392505050565b600081359050613f25816157e8565b92915050565b600082601f830112613f3c57600080fd5b8135613f4c848260208601613e6c565b91505092915050565b600081519050613f64816157ff565b92915050565b600082601f830112613f7b57600080fd5b8135613f8b848260208601613ed8565b91505092915050565b600060808284031215613fa657600080fd5b613fb0608061543b565b9050600082013567ffffffffffffffff811115613fcc57600080fd5b613fd884828501613f6a565b600083015250602082013567ffffffffffffffff811115613ff857600080fd5b61400484828501613f6a565b602083015250604061401884828501614038565b604083015250606061402c84828501614038565b60608301525092915050565b60008135905061404781615816565b92915050565b60008151905061405c81615816565b92915050565b60006020828403121561407457600080fd5b600061408284828501613f16565b91505092915050565b60006020828403121561409d57600080fd5b600082013567ffffffffffffffff8111156140b757600080fd5b6140c384828501613f2b565b91505092915050565b6000602082840312156140de57600080fd5b60006140ec84828501613f55565b91505092915050565b60006020828403121561410757600080fd5b600082013567ffffffffffffffff81111561412157600080fd5b61412d84828501613f6a565b91505092915050565b6000806040838503121561414957600080fd5b600083013567ffffffffffffffff81111561416357600080fd5b61416f85828601613f6a565b925050602083013567ffffffffffffffff81111561418c57600080fd5b61419885828601613f6a565b9150509250929050565b600080600080600060a086880312156141ba57600080fd5b600086013567ffffffffffffffff8111156141d457600080fd5b6141e088828901613f6a565b955050602086013567ffffffffffffffff8111156141fd57600080fd5b61420988828901613f6a565b945050604086013567ffffffffffffffff81111561422657600080fd5b61423288828901613f6a565b935050606086013567ffffffffffffffff81111561424f57600080fd5b61425b88828901613f6a565b925050608086013567ffffffffffffffff81111561427857600080fd5b61428488828901613f6a565b9150509295509295909350565b60008060008060008060c087890312156142aa57600080fd5b600087013567ffffffffffffffff8111156142c457600080fd5b6142d089828a01613f6a565b965050602087013567ffffffffffffffff8111156142ed57600080fd5b6142f989828a01613f6a565b955050604087013567ffffffffffffffff81111561431657600080fd5b61432289828a01613f6a565b945050606087013567ffffffffffffffff81111561433f57600080fd5b61434b89828a01613f6a565b935050608087013567ffffffffffffffff81111561436857600080fd5b61437489828a01613f6a565b92505060a087013567ffffffffffffffff81111561439157600080fd5b61439d89828a01613f6a565b9150509295509295509295565b600080600080600080600080610100898b0312156143c757600080fd5b600089013567ffffffffffffffff8111156143e157600080fd5b6143ed8b828c01613f6a565b985050602089013567ffffffffffffffff81111561440a57600080fd5b6144168b828c01613f6a565b975050604089013567ffffffffffffffff81111561443357600080fd5b61443f8b828c01613f6a565b965050606089013567ffffffffffffffff81111561445c57600080fd5b6144688b828c01613f6a565b955050608089013567ffffffffffffffff81111561448557600080fd5b6144918b828c01613f6a565b94505060a06144a28b828c01614038565b93505060c089013567ffffffffffffffff8111156144bf57600080fd5b6144cb8b828c01613f6a565b92505060e089013567ffffffffffffffff8111156144e857600080fd5b6144f48b828c01613f6a565b9150509295985092959890939650565b60006020828403121561451657600080fd5b600061452484828501614038565b91505092915050565b60006020828403121561453f57600080fd5b600061454d8482850161404d565b91505092915050565b6000806040838503121561456957600080fd5b600061457785828601614038565b925050602083013567ffffffffffffffff81111561459457600080fd5b6145a085828601613f94565b9150509250929050565b600080604083850312156145bd57600080fd5b60006145cb85828601614038565b92505060206145dc85828601614038565b9150509250929050565b60006145f28383614ba3565b905092915050565b60006146068383614e8e565b905092915050565b614617816155dd565b82525050565b614626816155dd565b82525050565b6000614637826154fd565b6146418185615538565b935083602082028501614653856154c8565b8060005b8581101561468f578484038952815161467085826145e6565b945061467b8361551e565b925060208a01995050600181019050614657565b50829750879550505050505092915050565b60006146ac82615508565b6146b68185615549565b9350836020820285016146c8856154d8565b8060005b8581101561470457848403895281516146e585826145fa565b94506146f08361552b565b925060208a019950506001810190506146cc565b50829750879550505050505092915050565b61471f816155ef565b82525050565b600081546147328161568c565b61473c818661555a565b9450600182166000811461475757600181146147685761479b565b60ff1983168652818601935061479b565b614771856154e8565b60005b8381101561479357815481890152600182019150602081019050614774565b838801955050505b50505092915050565b6147ad81615638565b82525050565b60006147be82615513565b6147c88185615565565b93506147d8818560208601615659565b6147e1816157c3565b840191505092915050565b60006147f782615513565b6148018185615576565b9350614811818560208601615659565b61481a816157c3565b840191505092915050565b6000614832601683615576565b91507f205269646520416c726561647920426f6f6b65642021000000000000000000006000830152602082019050919050565b6000614872601a83615576565b91507f4e6f7420656e6f7567682062616c616e636520746f20626964210000000000006000830152602082019050919050565b60006148b2602883615576565b91507f447269766572732063616e6e6f742062696420696e207468656972206f776e2060008301527f61756374696f6e210000000000000000000000000000000000000000000000006020830152604082019050919050565b6000614918602683615576565b91507f4f776e61626c653a206e6577206f776e657220697320746865207a65726f206160008301527f64647265737300000000000000000000000000000000000000000000000000006020830152604082019050919050565b600061497e601d83615576565b91507f41756374696f6e2068617320616c72656164792066696e6973686564210000006000830152602082019050919050565b60006149be602883615576565b91507f2052696465204e6f7420426f6f6b656420796574206f72205269646520436f6d60008301527f706c6574656420210000000000000000000000000000000000000000000000006020830152604082019050919050565b6000614a24603d83615576565b91507f526964652063616e2062652063616e63656c6c6564206279207468652072696460008301527f6520637573746f6d6572206f7220647269766572206f6e6c79202121200000006020830152604082019050919050565b6000614a8a601783615576565b91507f204e6f20537563682052696465204578697374732021200000000000000000006000830152602082019050919050565b6000614aca602083615576565b91507f4f776e61626c653a2063616c6c6572206973206e6f7420746865206f776e65726000830152602082019050919050565b6000614b0a601d83615576565b91507f4e6f20726567697374657265642064726976657220466f756e642021210000006000830152602082019050919050565b6000614b4a602c83615576565b91507f42696420686967686572207468616e207468652070726576696f75732068696760008301527f68657374206269646465722100000000000000000000000000000000000000006020830152604082019050919050565b600061010083016000830151614bbc600086018261500a565b506020830151614bcf602086018261500a565b506040830151614be2604086018261460e565b506060830151614bf5606086018261460e565b506080830151614c086080860182614716565b5060a083015184820360a0860152614c208282614fa0565b91505060c0830151614c3560c086018261500a565b5060e0830151614c4860e086018261500a565b508091505092915050565b600061010083016000830151614c6c600086018261500a565b506020830151614c7f602086018261500a565b506040830151614c92604086018261460e565b506060830151614ca5606086018261460e565b506080830151614cb86080860182614716565b5060a083015184820360a0860152614cd08282614fa0565b91505060c0830151614ce560c086018261500a565b5060e0830151614cf860e086018261500a565b508091505092915050565b600060e083016000830151614d1b600086018261500a565b5060208301518482036020860152614d3382826147b3565b91505060408301518482036040860152614d4d82826147b3565b91505060608301518482036060860152614d6782826147b3565b91505060808301518482036080860152614d8182826147b3565b91505060a083015184820360a0860152614d9b82826147b3565b91505060c0830151614db060c086018261460e565b508091505092915050565b600061010083016000830151614dd4600086018261500a565b5060208301518482036020860152614dec82826147b3565b91505060408301518482036040860152614e0682826147b3565b91505060608301518482036060860152614e2082826147b3565b91505060808301518482036080860152614e3a82826147b3565b91505060a083015184820360a0860152614e5482826147b3565b91505060c083015184820360c0860152614e6e82826147b3565b91505060e0830151614e8360e086018261460e565b508091505092915050565b600060c083016000830151614ea6600086018261500a565b506020830151614eb9602086018261460e565b506040830151614ecc604086018261460e565b506060830151614edf60608601826147a4565b5060808301518482036080860152614ef782826147b3565b91505060a0830151614f0c60a086018261500a565b508091505092915050565b600060c083016000830151614f2f600086018261500a565b506020830151614f42602086018261460e565b506040830151614f55604086018261460e565b506060830151614f6860608601826147a4565b5060808301518482036080860152614f8082826147b3565b91505060a0830151614f9560a086018261500a565b508091505092915050565b60006080830160008301518482036000860152614fbd82826147b3565b91505060208301518482036020860152614fd782826147b3565b9150506040830151614fec604086018261500a565b506060830151614fff606086018261500a565b508091505092915050565b6150138161562e565b82525050565b6150228161562e565b82525050565b60006150348284614725565b915081905092915050565b6000602082019050615054600083018461461d565b92915050565b600060608201905061506f600083018661461d565b61507c602083018561461d565b6150896040830184615019565b949350505050565b60006040820190506150a6600083018561461d565b6150b36020830184615019565b9392505050565b600060208201905081810360008301526150d4818461462c565b905092915050565b600060208201905081810360008301526150f681846146a1565b905092915050565b6000602082019050818103600083015261511781614825565b9050919050565b6000602082019050818103600083015261513781614865565b9050919050565b60006020820190508181036000830152615157816148a5565b9050919050565b600060208201905081810360008301526151778161490b565b9050919050565b6000602082019050818103600083015261519781614971565b9050919050565b600060208201905081810360008301526151b7816149b1565b9050919050565b600060208201905081810360008301526151d781614a17565b9050919050565b600060208201905081810360008301526151f781614a7d565b9050919050565b6000602082019050818103600083015261521781614abd565b9050919050565b6000602082019050818103600083015261523781614afd565b9050919050565b6000602082019050818103600083015261525781614b3d565b9050919050565b600060208201905081810360008301526152788184614c53565b905092915050565b6000602082019050818103600083015261529a8184614d03565b905092915050565b600060208201905081810360008301526152bc8184614dbb565b905092915050565b600060208201905081810360008301526152de8184614f17565b905092915050565b60006020820190506152fb6000830184615019565b92915050565b600060e082019050615316600083018a615019565b818103602083015261532881896147ec565b9050818103604083015261533c81886147ec565b9050818103606083015261535081876147ec565b9050818103608083015261536481866147ec565b905081810360a083015261537881856147ec565b905061538760c083018461461d565b98975050505050505050565b6000610100820190506153a9600083018b615019565b81810360208301526153bb818a6147ec565b905081810360408301526153cf81896147ec565b905081810360608301526153e381886147ec565b905081810360808301526153f781876147ec565b905081810360a083015261540b81866147ec565b905081810360c083015261541f81856147ec565b905061542e60e083018461461d565b9998505050505050505050565b6000604051905081810181811067ffffffffffffffff8211171561546257615461615794565b5b8060405250919050565b600067ffffffffffffffff82111561548757615486615794565b5b602082029050602081019050919050565b600067ffffffffffffffff8211156154b3576154b2615794565b5b601f19601f8301169050602081019050919050565b6000819050602082019050919050565b6000819050602082019050919050565b60008190508160005260206000209050919050565b600081519050919050565b600081519050919050565b600081519050919050565b6000602082019050919050565b6000602082019050919050565b600082825260208201905092915050565b600082825260208201905092915050565b600081905092915050565b600082825260208201905092915050565b600082825260208201905092915050565b60006155928261562e565b915061559d8361562e565b9250827fffffffffffffffffffffffffffffffffffffffffffffffffffffffffffffffff038211156155d2576155d1615707565b5b828201905092915050565b60006155e88261560e565b9050919050565b60008115159050919050565b6000819050615609826157d4565b919050565b600073ffffffffffffffffffffffffffffffffffffffff82169050919050565b6000819050919050565b6000615643826155fb565b9050919050565b82818337600083830152505050565b60005b8381101561567757808201518184015260208101905061565c565b83811115615686576000848401525b50505050565b600060028204905060018216806156a457607f821691505b602082108114156156b8576156b7615765565b5b50919050565b60006156c98261562e565b91507fffffffffffffffffffffffffffffffffffffffffffffffffffffffffffffffff8214156156fc576156fb615707565b5b600182019050919050565b7f4e487b7100000000000000000000000000000000000000000000000000000000600052601160045260246000fd5b7f4e487b7100000000000000000000000000000000000000000000000000000000600052602160045260246000fd5b7f4e487b7100000000000000000000000000000000000000000000000000000000600052602260045260246000fd5b7f4e487b7100000000000000000000000000000000000000000000000000000000600052604160045260246000fd5b6000601f19601f8301169050919050565b600481106157e5576157e4615736565b5b50565b6157f1816155dd565b81146157fc57600080fd5b50565b615808816155ef565b811461581357600080fd5b50565b61581f8161562e565b811461582a57600080fd5b5056fea2646970667358221220d4c03b0cc68ccbc36a3906f5e32f867488d630bf1f9b66660e92053dc6d2532864736f6c63430008000033",
  "immutableReferences": {},
  "source": "// SPDX-License-Identifier: MIT\r\npragma solidity 0.8.0;\r\npragma experimental ABIEncoderV2;\r\n\r\nimport \"@openzeppelin/contracts/access/Ownable.sol\";\r\nimport \"./TOKENX.sol\";\r\nimport \"./Driver.sol\";\r\nimport \"./Customer.sol\";\r\n\r\ncontract Ride is Ownable, Driver , Customer{\r\n\r\n    uint256 rideCount;\r\n    uint256 auctionCount;\r\n\r\n    enum RIDE_STATUS { POSTED , CONFIRMED , CANCELLED , COMPLETED }\r\n        \r\n    TOKENX tradeToken;\r\n\r\n    struct USER{\r\n        uint _citId;\r\n        string _name;\r\n        string _email;\r\n        string _password;\r\n        string _address;\r\n        string _aadhar;\r\n        uint _isDriver;\r\n        string _vehicleNo;\r\n        string _vehicle;\r\n        address _accAddress;\r\n\r\n        // should you store the address or not that is the quest\r\n    }\r\n    \r\n\r\n    constructor(address _token) {\r\n        tradeToken = TOKENX(payable(_token));\r\n        rideCount = 0;\r\n        auctionCount = 0;\r\n    }\r\n\r\n\r\n    struct RIDE_DETAILS {\r\n        string pickup;\r\n        string destination;\r\n        uint256 distance;\r\n        uint256 price;\r\n    }\r\n\r\n    struct RIDE {\r\n        uint id;\r\n        address driver ;\r\n        address customer ;\r\n        RIDE_STATUS status;\r\n        string ride; \r\n        uint256 timestamp;\r\n    }\r\n\r\n    struct AUCTION{\r\n        uint id;\r\n        uint latestHighestBid;\r\n        address currentBidder;\r\n        address driver;\r\n        bool isAuctionGoingOn;\r\n        RIDE_DETAILS ride; \r\n        uint256 timeOfPosting;\r\n        uint256 secondsUntilAuctionEnds;\r\n    }\r\n\r\n    mapping(uint256 => RIDE) private Rides;\r\n    mapping(uint256 => AUCTION) private Auctions;\r\n    mapping(uint =>USER) private loginData;\r\n    uint userCount = 0;\r\n    ///@dev checks if the ride is present or not\r\n    modifier checkRide(uint256 _rideId) {\r\n        require(Rides[_rideId].id>0,\" No Such Ride Exists ! \");\r\n        _;\r\n    }\r\n\r\n\r\n    function registerCitizen(string memory name,string memory email ,string memory password ,string memory addr,string memory aadhar,uint isDriver,string memory vehicleNo,string memory vehicle ) public {\r\n        \r\n        userCount++;\r\n        loginData[userCount]._name = name;\r\n        loginData[userCount]._email = email;\r\n        loginData[userCount]._password = password;\r\n        loginData[userCount]._address = addr ;\r\n        loginData[userCount]._accAddress = msg.sender;\r\n        loginData[userCount]._vehicleNo = vehicleNo;\r\n        loginData[userCount]._vehicle = vehicle;\r\n        loginData[userCount]._isDriver = isDriver;\r\n        // should you store the address of the curr user \r\n        // create a mapping for address to password\r\n        loginData[userCount]._citId = userCount;\r\n        //increment the citizencount then the value \r\n        if(isDriver>0){\r\n            createDriver(name,name, addr, aadhar,name,name);\r\n        }else{\r\n            createCustomer(name, email,name,aadhar,name );\r\n        }\r\n\r\n    }\r\n    // function viewCitizen(uint cid) public view returns(USER memory){\r\n    //     return loginData[cid];\r\n    // }\r\n\r\n    // function viewCitizen(uint cid) public view returns(string memory,string memory,uint,address){\r\n    //     return(loginData[userCount]._name,loginData[userCount]._email,loginData[userCount]._password,loginData[userCount]._address,loginData[userCount]._accAddress,loginData[userCount]._vehicleNo,loginData[userCount]._vehicle,loginData[userCount]._isDriver);\r\n    // }\r\n    \r\n    function LoginCitizen(string memory email,string memory password) public view returns(uint){\r\n        // start with checking if email exists in logindata \r\n        // check for authentication \r\n        uint i ;\r\n        for( i = 1;i<=userCount;i++){\r\n            if((keccak256(bytes(loginData[i]._email)) == keccak256(bytes(email))) \r\n            && (keccak256(bytes(loginData[i]._password)) == keccak256(bytes(password)))){\r\n                \r\n                return loginData[i]._citId;\r\n            }     \r\n        }\r\n        \r\n        return 0;\r\n    }\r\n\r\n\r\n\r\n    function postRide(string memory _rideDetails)\r\n        public\r\n        returns (uint256)\r\n    {\r\n        require(drivers[msg.sender].id>0 ,\"No registered driver Found !!\");\r\n\r\n\r\n        rideCount++;\r\n\r\n        RIDE memory cur_ride;\r\n        \r\n        cur_ride.id = rideCount;\r\n        cur_ride.driver = msg.sender;\r\n        cur_ride.status = RIDE_STATUS.POSTED;\r\n        cur_ride.ride =_rideDetails;\r\n        cur_ride.timestamp = block.timestamp;\r\n\r\n        Rides[rideCount] = cur_ride;\r\n\r\n        return rideCount;\r\n    }\r\n\r\n    function bookRide(uint256 _rideId) public checkRide(_rideId){\r\n        // this needs to be a customer to get the details \r\n        // require(customers[msg.sender].id>0 ,\"No registered Customer Found !!\");\r\n        require(Rides[_rideId].status==RIDE_STATUS.POSTED,\" Ride Already Booked !\");\r\n\r\n        Rides[_rideId].customer = msg.sender;\r\n        Rides[_rideId].status = RIDE_STATUS.CONFIRMED;\r\n        Rides[_rideId].timestamp = block.timestamp;\r\n        // return _rideId;\r\n    }\r\n\r\n    function getAllRides()\r\n        public\r\n        view\r\n        returns (RIDE[] memory)\r\n    {\r\n        RIDE[] memory allRides;\r\n        uint256 count = 0;\r\n\r\n        for (uint256 i = 1; i <= rideCount; i++) {\r\n            uint256 rideId = i;\r\n            allRides[count] = Rides[rideId];\r\n            count++;\r\n        }\r\n\r\n        return allRides;\r\n    }\r\n\r\n    function fetchRide(uint256 _rideId) public view checkRide(_rideId) returns (RIDE memory) {\r\n        return Rides[_rideId];\r\n    }\r\n\r\n    function cancelRide(uint _rideId) public checkRide(_rideId){\r\n        \r\n        require(Rides[_rideId].status == RIDE_STATUS.CONFIRMED,\" Ride Not Booked yet or Ride Completed !\");\r\n        require((Rides[_rideId].customer == msg.sender || Rides[_rideId].driver == msg.sender), \"Ride can be cancelled by the ride customer or driver only !! \");\r\n\r\n        Rides[_rideId].status = RIDE_STATUS.CANCELLED;\r\n        Rides[_rideId].timestamp = block.timestamp;\r\n\r\n    }\r\n\r\n    function completeRide(uint256 _rideId) public {\r\n\r\n        require(Rides[_rideId].status == RIDE_STATUS.CONFIRMED,\" Ride Not Booked yet or Ride Completed !\");\r\n        require((Rides[_rideId].customer == msg.sender || Rides[_rideId].driver == msg.sender), \"Ride can be cancelled by the ride customer or driver only !! \");\r\n\r\n        Rides[_rideId].status = RIDE_STATUS.COMPLETED;\r\n        Rides[_rideId].timestamp = block.timestamp;\r\n        \r\n    }\r\n\r\n    function getRideCount() public view returns(uint256) {\r\n        return rideCount;\r\n    }\r\n\r\n\r\n    function addToAuction(uint256 _secondsUntilAuctionEnds , RIDE_DETAILS memory _details)\r\n        public\r\n        returns (uint256)\r\n    {\r\n        auctionCount++;\r\n        AUCTION memory curAuc;\r\n        curAuc.id = auctionCount;\r\n        curAuc.latestHighestBid = 0;\r\n        curAuc.currentBidder = address(0);\r\n        curAuc.driver = msg.sender;\r\n        curAuc.isAuctionGoingOn = true;\r\n        curAuc.ride = _details;\r\n        curAuc.timeOfPosting = block.timestamp;\r\n        curAuc.secondsUntilAuctionEnds = _secondsUntilAuctionEnds;\r\n\r\n        Auctions[auctionCount] = curAuc;\r\n\r\n        return auctionCount;\r\n    }\r\n\r\n    function getBalanceOfAddress() public view returns(uint256){\r\n        return tradeToken.balanceOf(msg.sender);\r\n    }\r\n\r\n    function transferThisFrom(uint256 bidamt) public payable{\r\n        tradeToken.transferFrom(msg.sender,address(this),bidamt);\r\n    }\r\n\r\n    function bid(uint256  _auctionId, uint256 bidamt) public payable{\r\n\r\n        checkValidity(_auctionId);\r\n\r\n        AUCTION storage act = Auctions[_auctionId];\r\n\r\n        require(act.isAuctionGoingOn == true, \"Auction has already finished!\");\r\n        require(msg.sender != act.driver, \"Drivers cannot bid in their own auction!\");\r\n        require(bidamt < tradeToken.balanceOf(msg.sender), \"Not enough balance to bid!\");\r\n        require(bidamt > act.latestHighestBid, \"Bid higher than the previous highest bidder!\");\r\n\r\n\r\n        // get the previous bidder \r\n        address currentBidder = act.currentBidder;\r\n        uint256 prevBidPrice = act.latestHighestBid;\r\n        act.latestHighestBid = 0;\r\n\r\n        //  get the tokens from the current highest bidder and keep it with the contract\r\n        tradeToken.transferFrom(msg.sender,address(this),bidamt);\r\n\r\n        // transfer the amount back from the contract to the previous bidder \r\n        if(currentBidder != address(0)){\r\n            tradeToken.transfer(currentBidder, prevBidPrice);\r\n        }\r\n        act.latestHighestBid = bidamt;\r\n        act.currentBidder = msg.sender;\r\n\r\n    }\r\n\r\n    function checkValidity (uint256 _auctionId) private {\r\n        if((Auctions[_auctionId].isAuctionGoingOn == true) && (Auctions[auctionCount].timeOfPosting + Auctions[auctionCount].secondsUntilAuctionEnds < block.timestamp)){\r\n            Auctions[_auctionId].isAuctionGoingOn = false;\r\n        }\r\n    }\r\n    // we need to book the cancel the auction or complete it \r\n\r\n    function getAllAuctions(uint256[] memory rideIds)\r\n        public\r\n        view\r\n        returns (AUCTION[] memory)\r\n    {\r\n        AUCTION[] memory allAuctions;\r\n        uint256 count = 0;\r\n\r\n        for (uint256 i = 0; i < rideIds.length; i++) {\r\n            uint256 rideId = rideIds[i];\r\n            allAuctions[count] = Auctions[rideId];\r\n            count++;\r\n        }\r\n\r\n        return allAuctions;\r\n    }\r\n\r\n    function fetchAuction(uint256 _auctionId) public view returns (AUCTION memory) {\r\n        return Auctions[_auctionId];\r\n    }\r\n    function getAuctionCount() public view returns(uint256) {\r\n        return rideCount;\r\n    }\r\n\r\n}\r\n\r\n",
  "sourcePath": "D:\\CODING\\BLOCKCHAIN\\P2P\\contracts\\Ride.sol",
  "compiler": {
    "name": "solc",
    "version": "0.8.0+commit.c7dfd78e.Emscripten.clang"
  },
  "schemaVersion": "3.4.4",
  "updatedAt": "2023-05-18T02:36:36.169Z",
  "networkType": "ethereum",
  "devdoc": {
    "kind": "dev",
    "methods": {
      "owner()": {
        "details": "Returns the address of the current owner."
      },
      "renounceOwnership()": {
        "details": "Leaves the contract without owner. It will not be possible to call `onlyOwner` functions anymore. Can only be called by the current owner. NOTE: Renouncing ownership will leave the contract without an owner, thereby removing any functionality that is only available to the owner."
      },
      "transferOwnership(address)": {
        "details": "Transfers ownership of the contract to a new account (`newOwner`). Can only be called by the current owner."
      }
    },
    "version": 1
  },
  "userdoc": {
    "kind": "user",
    "methods": {},
    "version": 1
  }
}